{
  "transactions": [
    {
      "hash": "0xea32ff1213da1af19e430e4686a2a9c794627001cedb70c0b7ed8f9a0b991a14",
      "transactionType": "CALL",
      "contractName": "LinkToken",
      "contractAddress": "0x779877A7B0D9E8603169DdbD7836e478b4624789",
      "function": "transferAndCall(address,uint256,bytes)",
      "arguments": [
        "0x8103B0A8A00be2DDC778e6e7eaa21791Cd364625",
        "3000000000000000000",
        "0x0000000000000000000000000000000000000000000000000000000000002250"
      ],
      "transaction": {
        "type": "0x02",
        "from": "0xfc928ea01258e6940f6f2aa2e0cd1b5f4dee1c02",
        "to": "0x779877a7b0d9e8603169ddbd7836e478b4624789",
        "gas": "0x13fbe",
        "value": "0x0",
        "data": "0x4000aea00000000000000000000000008103b0a8a00be2ddc778e6e7eaa21791cd36462500000000000000000000000000000000000000000000000029a2241af62c0000000000000000000000000000000000000000000000000000000000000000006000000000000000000000000000000000000000000000000000000000000000200000000000000000000000000000000000000000000000000000000000002250",
        "nonce": "0x36",
        "accessList": []
      },
      "additionalContracts": [],
      "isFixedGasLimit": false
    }
  ],
  "receipts": [],
  "libraries": [],
  "pending": [
    "0xea32ff1213da1af19e430e4686a2a9c794627001cedb70c0b7ed8f9a0b991a14"
  ],
  "returns": {},
  "timestamp": 1706035290,
  "chain": 11155111,
  "multi": false,
  "commit": "ebbb31b"
}