{
  "transactions": [
    {
      "hash": "0xea32ff1213da1af19e430e4686a2a9c794627001cedb70c0b7ed8f9a0b991a14",
      "transactionType": "CALL",
      "contractName": "LinkToken",
      "contractAddress": "0x779877A7B0D9E8603169DdbD7836e478b4624789",
      "function": "transferAndCall(address,uint256,bytes)",
      "arguments": [
        "0x8103B0A8A00be2DDC778e6e7eaa21791Cd364625",
        "3000000000000000000",
        "0x0000000000000000000000000000000000000000000000000000000000002250"
      ],
      "transaction": {
        "type": "0x02",
        "from": "0xfc928ea01258e6940f6f2aa2e0cd1b5f4dee1c02",
        "to": "0x779877a7b0d9e8603169ddbd7836e478b4624789",
        "gas": "0x13fbe",
        "value": "0x0",
        "data": "0x4000aea00000000000000000000000008103b0a8a00be2ddc778e6e7eaa21791cd36462500000000000000000000000000000000000000000000000029a2241af62c0000000000000000000000000000000000000000000000000000000000000000006000000000000000000000000000000000000000000000000000000000000000200000000000000000000000000000000000000000000000000000000000002250",
        "nonce": "0x36",
        "accessList": []
      },
      "additionalContracts": [],
      "isFixedGasLimit": false
    }
  ],
  "receipts": [
    {
      "transactionHash": "0xea32ff1213da1af19e430e4686a2a9c794627001cedb70c0b7ed8f9a0b991a14",
      "transactionIndex": "0x2d",
      "blockHash": "0x053be6c0e99ed2d1b34124de0b886905691b8bca114c07285b1a22413c886c22",
      "blockNumber": "0x4e7149",
      "from": "0xFc928ea01258E6940F6F2Aa2e0Cd1B5f4deE1c02",
      "to": "0x779877A7B0D9E8603169DdbD7836e478b4624789",
      "cumulativeGasUsed": "0x2f37f0",
      "gasUsed": "0xe77e",
      "contractAddress": null,
      "logs": [
        {
          "address": "0x779877A7B0D9E8603169DdbD7836e478b4624789",
          "topics": [
            "0xddf252ad1be2c89b69c2b068fc378daa952ba7f163c4a11628f55a4df523b3ef",
            "0x000000000000000000000000fc928ea01258e6940f6f2aa2e0cd1b5f4dee1c02",
            "0x0000000000000000000000008103b0a8a00be2ddc778e6e7eaa21791cd364625"
          ],
          "data": "0x00000000000000000000000000000000000000000000000029a2241af62c0000",
          "blockHash": "0x053be6c0e99ed2d1b34124de0b886905691b8bca114c07285b1a22413c886c22",
          "blockNumber": "0x4e7149",
          "transactionHash": "0xea32ff1213da1af19e430e4686a2a9c794627001cedb70c0b7ed8f9a0b991a14",
          "transactionIndex": "0x2d",
          "logIndex": "0x1c",
          "removed": false
        },
        {
          "address": "0x779877A7B0D9E8603169DdbD7836e478b4624789",
          "topics": [
            "0xe19260aff97b920c7df27010903aeb9c8d2be5d310a2c67824cf3f15396e4c16",
            "0x000000000000000000000000fc928ea01258e6940f6f2aa2e0cd1b5f4dee1c02",
            "0x0000000000000000000000008103b0a8a00be2ddc778e6e7eaa21791cd364625"
          ],
          "data": "0x00000000000000000000000000000000000000000000000029a2241af62c0000000000000000000000000000000000000000000000000000000000000000004000000000000000000000000000000000000000000000000000000000000000200000000000000000000000000000000000000000000000000000000000002250",
          "blockHash": "0x053be6c0e99ed2d1b34124de0b886905691b8bca114c07285b1a22413c886c22",
          "blockNumber": "0x4e7149",
          "transactionHash": "0xea32ff1213da1af19e430e4686a2a9c794627001cedb70c0b7ed8f9a0b991a14",
          "transactionIndex": "0x2d",
          "logIndex": "0x1d",
          "removed": false
        },
        {
          "address": "0x8103B0A8A00be2DDC778e6e7eaa21791Cd364625",
          "topics": [
            "0xd39ec07f4e209f627a4c427971473820dc129761ba28de8906bd56f57101d4f8",
            "0x0000000000000000000000000000000000000000000000000000000000002250"
          ],
          "data": "0x0000000000000000000000000000000000000000000000007e16135b67c76357000000000000000000000000000000000000000000000000a7b837765df36357",
          "blockHash": "0x053be6c0e99ed2d1b34124de0b886905691b8bca114c07285b1a22413c886c22",
          "blockNumber": "0x4e7149",
          "transactionHash": "0xea32ff1213da1af19e430e4686a2a9c794627001cedb70c0b7ed8f9a0b991a14",
          "transactionIndex": "0x2d",
          "logIndex": "0x1e",
          "removed": false
        }
      ],
      "status": "0x1",
      "logsBloom": "0x0000001400000000000000000200000000000000000000020000000002000000000000000000800000000000000000000000000000000000000000000000000000000000000000000020000800000000000000000000000000002000000000001000000000000000001000000000000000000000400000000000001000000000000000000c000022000000000000800010000020000000000000000000000000000000000000000000000000000000004000000000000000000400000000000000000002000000000000000000000000000000000000000100000000000000000000000000000000000000000000000000000000000000000000000000000000",
      "type": "0x2",
      "effectiveGasPrice": "0xdfb03223e"
    }
  ],
  "libraries": [],
  "pending": [],
  "returns": {},
  "timestamp": 1706035303,
  "chain": 11155111,
  "multi": false,
  "commit": "ebbb31b"
}